:020000040800F2
:1000000098080020A10100089D2000087D1F00081D
:1000100099200008A50B00089925000800000000A1
:10002000000000000000000000000000FD200008AB
:10003000A90B000800000000CD20000831210008B5
:10004000BB010008BB010008BB010008BB010008A0
:10005000BB010008BB010008BB010008BB01000890
:10006000BB010008BB010008BB010008BB01000880
:10007000BB010008BB010008BB010008BB01000870
:10008000BB010008BB010008BB010008BB01000860
:10009000BB010008BB010008BB010008BB01000850
:1000A000BB01000899210008BB010008BB01000842
:1000B000BB010008BB010008BB010008BB01000830
:1000C000BB010008BB010008BB010008BB01000820
:1000D000BB0100087925000889250008BB0100083C
:1000E000BB010008BB010008BB01000800F002F8DA
:1000F00000F047F80AA090E8000C82448344AAF17B
:100100000107DA4501D100F03CF8AFF2090EBAE878
:100110000F0013F0010F18BFFB1A43F0010318473B
:100120006834000088340000103A24BF78C878C1D1
:10013000FAD8520724BF30C830C144BF04680C60ED
:10014000704700000023002400250026103A28BF35
:1001500078C1FBD8520728BF30C148BF0B60704739
:10016000662903F05C81002070471FB500F0A4FBF6
:1001700004000020002102F07DFFE0601FBD10B5EB
:1001800010BD00F099FC1146FFF7EFFF02F024FBD1
:1001900000F0B7FC03B4FFF7F2FF03BC00F0FAFC79
:1001A0000948804709480047FEE7FEE7FEE7FEE70B
:1001B000FEE7FEE7FEE7FEE7FEE7FEE70448054947
:1001C000054A064B7047000095210008ED00000825
:1001D000980200209808002098040020980400202D
:1001E0000FB41CB50C0007AA009001D02044401E9B
:1001F000074B7B4469460190069800F01AFB002CDF
:1002000003D06946002000F027FB1CBC5DF814FBFE
:100210006D0600002DE9F0474FF0000A89460446BC
:10022000C0F820A02046E1688847002876D025281D
:1002300006D0D4E901219047206A401C2062F1E7F2
:10024000E168204600258847C4F81CA00646002720
:10025000C4F818A02A2E09D0304602F004FF38B3A3
:1002600004EB8708303EC8F8186019E059F8041B01
:10027000204604EB87029161E1688847012F06461A
:1002800018D1E069002820DA25F020051DE0D8F813
:10029000180000EB800006EB40003038C8F818006A
:1002A0002046E1688847064602F0DDFE0028EED1D0
:1002B000012F0AD02E2E08D12046E16888477F1CE6
:1002C0000646022F45F02005C4DBA069002803DAAA
:1002D000404245F00105A061E80701D025F0100576
:1002E000B6B1A6F14100192802D8203645F40065C0
:1002F0004A463146204625604D46FFF731FF58B14A
:10030000012806D0ED1D25F0070000F1080989E756
:1003100004E005F1040985E730468AE7206ABDE874
:10032000F08710B5431C02E010F8011B71B1810782
:10033000FAD14FF0013202C88C1A8C4314EAC21170
:10034000F9D0C01A0A0603D0C01E10BDC01A10BDD5
:100350000A0401D0801E10BD0902FCD0401E10BD51
:100360004FF0000200B5134694469646203922BF4E
:10037000A0E80C50A0E80C50B1F12001BFF4F7AF99
:10038000090728BFA0E80C5048BF0CC05DF804EB7B
:10039000890028BF40F8042B08BF704748BF20F8E9
:1003A000022B11F0804F18BF00F8012B704710B5D9
:1003B000044610F0030F08BF11F0030F40F0158042
:1003C0004FF0013E121FC0F20E8051F8043BA3EB28
:1003D0000E0C2CEA030C1CEACE1C08BF40F8043BB0
:1003E000F0D0A1F1040102F10402521E08DB11F861
:1003F000013B00F8013B002BF7D1114600F039FA20
:10040000204610BD7047704770472DE9FF4F0C46DE
:100410001E464FF0FF378BB0D2E90001DDF8608057
:100420000A908A46C1F30A5505B93D46002108469F
:100430004FF00000BAF1000F00F4400005DA00EBC5
:1004400080004FF4400101EA50004FEA9059B9F1A1
:10045000010F00DDB9460A9850EA4A000ED044F672
:100460001050A5F2FF3545432F14B8F1000F1ED0F0
:100470007542291E1EDDC9F100021CE0B8F1010F12
:100480004FF0000001D0302103E0F24305E0215499
:10049000401CB042FBDB30460022002121540B9966
:1004A000C1F80880C1E900200FB0BDE8F08FBD1B86
:1004B0006D1CDEE74A4600DA694206A800F086FABB
:1004C00006AB93E8070003AB83E8070050460A99A0
:1004D00002F0EDF98DE80700A0F500501F380090FC
:1004E0000398002D0ADD42F21F014A46084400230A
:1004F00003A90390684602F056FC09E0A0F50050FD
:100500004A461F38002303A90390684602F060FCA6
:100510008DE807000004000C03D04FF0FF304108C5
:1005200000E01046B8F1000F03D0002200921546FB
:100530001EE0751E05D400F0C3F9303262556D1E01
:10054000F9D5B3460122084302D000227F1C04E003
:100550002078302801D100227F1E002A099784D0FC
:100560001DE0112D07DA00F0ABF9303262556D1C39
:1005700050EA0102F5D1084302D00098C8B10EE05C
:100580000021681E05E0235C625C63542254401E17
:10059000491C8142F7DBAB46A81B401E0990002096
:1005A00004F80B000B98099AC0F80880C0E9002BEA
:1005B0007AE711264FF0000857E72DE9F04F8846FB
:1005C0000446D21D22F0070191B0D1E90001CDE926
:1005D0000A0102F034FD02460B98C00F01D02D2015
:1005E00007E02068810701D52B2002E0202101EAE5
:1005F000C000032A099001D0072A05DB03464146C3
:10060000204600F0A3F90BE12078800601D5E069CF
:1006100000E00620B8F1650F814606D0B8F1660FFC
:1006200018D0B8F1670F70D131E00020B9F1110F87
:10063000009001DB112301E009F101030AAA01A9DD
:100640000CA8FFF7E2FEDDE90C70002609F10105B8
:10065000834647E001204B4600904FF000470AAA2E
:1006600001A90CA8FFF7D1FEDDE90DB00C995D469C
:10067000002610B909F101000D18B9EB050003D4EB
:10068000C0F1FF3609F10105A5EB09002BE0B9F136
:10069000010F01DA4FF001090020B9F1110F0090AC
:1006A000484601DD112300E003460AAA01A90CA86F
:1006B000FFF7ABFEDDE90C704D460026834620783F
:1006C00000070AD4AB4500DA5D4601A8012D04DD20
:1006D000411911F8011C302907D04F4502DA17F1F2
:1006E000040F04DA012082460FE06D1EEEE7002FB2
:1006F00002DCED1B3E4403E0781CA84200DD7D1CBB
:10070000B81B00F1010A4FF000472078000703D41E
:10071000AA4501DB4FF0FF3A0021B7F1004F0DF180
:1007200043088DF8431024D002202B23002F01DA38
:100730007F422D230A21021EA0F1010000DC5FB1DF
:1007400097FBF1FC97FBF1F201FB1C7C17460CF1C7
:10075000300C08F801CDEEE7A8F101000370218804
:10076000090501D5452100E06521A0F1010800F847
:10077000011C09980FA9A1EB0807FF1D00B101207A
:10078000411901EBEA70A1693844081A401EA061C2
:100790002078C00602D42046AFF30080099828B123
:1007A000D4E901219047206A401C20622078C006CD
:1007B00022D52046AFF300801EE0002E04DBB345B7
:1007C00002DD01A8805D00E03020D4E901219047DE
:1007D000206A401C2062761CAAF101005FEA000A30
:1007E0000AD100F069F8C0680168405CD4E90121D1
:1007F0009047206A401C2062281EA5F10105DCDC20
:1008000007E0D4E9012118F8010B9047206A401C49
:100810002062381EA7F10107F3DC2046AFF3008009
:10082000032011B041E6000001694A1C026108780A
:10083000704700B58FB0CDE9013100210591054920
:100840007944CDE9031011466846FFF7E3FC0FB089
:1008500000BD0000E5FFFFFF0A6802F8010B0A6017
:100860007047D1E900239A4202D2531C0B601070EA
:1008700070474FF000020429C0F0128010F0030C02
:100880003FF470ADCCF1040CBCF1020F18BF00F8BE
:10089000012BA8BF20F8022BA1EB0C01FFF762BDD2
:1008A0005FEAC17C24BF00F8012B00F8012B48BF90
:1008B00000F8012B7047000000487047300000200E
:1008C00030B5B0F10A0271F100034FEA900E4EEA22
:1008D000817EB0EB0E0061EB91014FEA101E4EEAF3
:1008E000017E10EB0E0041EB11114FEA102E4EEA83
:1008F000016E10EB0E0041EB11214FEA104E4EEA53
:10090000014E10EB0E0041EB1141401841F1000186
:100910004FEAD00040EA41704FEAD1014FEA81042A
:1009200044EA907410EB800544EB01046D1944EB2C
:100930000404521BA3414FF0000348BF0A3200D504
:1009400030BD401C41F1000130BD00002DE9F041F7
:100950001F46044603260168072A01F4006004DBF1
:1009600008B116A505E016A503E008B115A500E03D
:1009700015A521F010002060A069C01EA0610FB174
:10098000401EA0612046AFF300804FB1D4E90121A1
:1009900038469047206A401C2062C01C206206E056
:1009A000206AFAE7D4E9012115F8010B9047761E79
:1009B000F8D22046AFF30080BDE8F0814E414E00F2
:1009C0006E616E00494E4600696E66002DE9F04783
:1009D000814616468AB0354878440DC88DE80D002A
:1009E00032487844801C03AC0DC884E80D0041F601
:1009F0009B300844372190FBF1F290FBF1F5A5F113
:100A0000800501FB12041B3C02D56442012000E07A
:100A10000020DFF898A080460027FA44AAF1BE0A19
:100A20000EE0E0070AD03246684607EB4701012393
:100A30000AEB810102F0CCF98DE8070064107F1CFD
:100A4000002CEED1194F7F44AE3F19E0E80715D0D6
:100A500007EB04100DF1180A90E80E008AE80E006A
:100A6000C068F04201D1981908903246012306A9C6
:100A700003A802F0ADF903AB83E807006D10641C16
:100A8000002DE3D14FF0010332466946B8F1000F63
:100A900003A802D002F087F901E002F099F9C9E950
:100AA0000001C9F808200AB0BDE8F087C42A000098
:100AB00000487047100000207546FFF7F9FFAE466A
:100AC00005006946534620F00700854618B020B55A
:100AD000FFF774FBBDE820404FF000064FF0000721
:100AE0004FF000084FF0000BAC46ACE8C009ACE892
:100AF000C009ACE8C009ACE8C00921F007018D4687
:100B0000704710B50446AFF300802046BDE81040A2
:100B1000FFF740BB4FF0013C50F8042B51F8043B69
:100B20009A4221D1A2EB0C03934313EACC1317D1C1
:100B300050F8042B51F8043B9A4215D1A2EB0C0358
:100B4000934313EACC130BD150F8042B51F8043B18
:100B50009A4209D1A2EB0C03934313EACC13DBD0E6
:100B60004FF00000704700BFD01A01BAB1FA81F10E
:100B700001F0180122FA01F0CB40DBB2C0B2C01A7A
:100B8000C1F120012CFA01F3D11A914311EAC311EA
:100B9000E6D1704701491820ABBEFEE726000200EF
:100BA00070470000FEE7000070470000EFF3108080
:100BB00072B600BFFEE70000014690F8210002284F
:100BC00013D10868D1E90FC3026822F00E02026057
:100BD000026822F001020260012000FA03F2CCF860
:100BE000042081F82100002002E004208863012015
:100BF000002281F82020704780B590F8211002294A
:100C000023D10268116821F00E0111602F211368B1
:100C1000C4F202018A4240F20401C4F2020123F04C
:100C20000103136016DD3023C4F202039A421DD083
:100C30004423C4F202039A421BD05823C4F2020395
:100C40009A421BD14FF4803320E0042181630121BB
:100C5000084680BD0823C4F202039A420CD01C232C
:100C6000C4F202039A4209D110230FE04FF48073BB
:100C70000CE04FF4805309E0012307E001F1680C18
:100C80004FF08073624508BF4FF480130B60012161
:100C900080F82110426B002180F820100AB19047A3
:100CA0000021084680BD00002DE9F04F84B00E6899
:100CB0000290002E00F0038140F20C4E40F20047FB
:100CC00041F200420298C4F2010EC4F20107C4F2DC
:100CD00001020423002401254FF0000A4FF000090F
:100CE000904208BF032300930AE000BF01250E686D
:100CF0000AF1010A36FA0AF204F1040400F0DF8076
:100D000005FA0AFB16EA0B08F1D04A684FF6FF73A2
:100D1000C1F210039A4211DC122A54D80298DFE87B
:100D200002F0350A434753535353535353535353CA
:100D30005353534A4E00D1F80C9045E04FF6FF73E1
:100D4000C1F221039A4210DC0023C1F21103029880
:100D50009A421BD00023C1F212039A4216D00023FC
:100D6000C1F221039A4211D02EE00023C1F22203E6
:100D700002989A420AD00023C1F231039A4205D068
:100D80000023C1F232039A421ED100BF8A6842B1E9
:100D9000012A14BFC0F814B0C0F810B04FF0080911
:100DA00012E04FF004090FE0CA6802F108090BE0F5
:100DB0004FF0000908E0CA6802F1040904E0CA68BB
:100DC00002F10C0900E0029822460346B8F5807F44
:100DD00024BF203A04331D684FF00F0C0CFA02F6C2
:100DE000B54309FA02F22A431A60CA79D2067FF59E
:100DF0007DAF41F21803CDF80490C4F202031A68E3
:100E0000F34642F001021A601A684FEA9A0E02F0A5
:100E100001020392039AA7F57E72B94652F82E306A
:100E200004F00C0740F600060CFA07F5C4F20106C0
:100E3000B04223EA050C10D040F60043C4F201038F
:100E400098420CD041F20003C4F201039842009B87
:100E50004FF0010508BF022303E0002300E0012357
:100E60000125BB4043EA0C0342F82E304E684F4642
:100E7000F202D9F8082054BF22EA080242EA080226
:100E8000DE46DDF80490BA60DEF80020B30254BFFD
:100E900022EA080242EA0802CEF800207A68B30388
:100EA00054BF22EA080242EA08027A603A68F30371
:100EB00054BF22EA080242EA08023A6017E704B087
:100EC000BDE8F08F40F29420C2F200000068704745
:100ED00040F2040040F29421C2F20000C2F200018C
:100EE00000780A68104408607047000080B542F23C
:100EF0000000C4F20200016841F01001016003200B
:100F000000F066F80F2000F005F800F02BF8002044
:100F100080BD0000B0B540F20402C2F2000240F20F
:100F200000011278C2F200014FF47A730968B3FB32
:100F3000F2F20446B1FBF2F1084600F0E9FA0F2C98
:100F40004FF001050CD858B94FF0FF302146002270
:100F5000002500F02DF840F20800C2F20000046005
:100F60002846B0BD82B041F21800C4F20200016808
:100F7000022241F001010160016801F001010191CB
:100F80000199416841F080514160406800F0805013
:100F9000009000980420C4F20100016862F31A6115
:100FA000016002B07047000080B501F0F7FA80BD23
:100FB00070B514460D46064601F000FB2946224650
:100FC00001F06EF80146304601F000FB70BD0000F4
:100FD00080B501F00DFB80BD2DE9F04381B0002804
:100FE00000F0878042F20008C4F202080446D8F8F4
:100FF00000000D4600F0070088420CD2D8F800002F
:1010000020F007002843C8F80000D8F8000000F0DE
:101010000700A8426DD1206841F204098107C4F29B
:10102000020917D5410705D5D9F8001041F4E06150
:10103000C9F80010010705D5D9F8001041F4605136
:10104000C9F80010D9F80010A26821F0F00111438E
:10105000C9F80010C00745D1D8F8000000F007001B
:10106000A8420CD9D8F8000020F007002843C8F89F
:101070000000D8F8000000F00700A84239D120682D
:10108000410707D5D9F80010E26821F4E061114367
:10109000C9F80010000708D5D9F80000216920F42C
:1010A000605040EAC100C9F8000000F077F8D9F8B4
:1010B000001043F2B842C1F30311C0F60002515CC4
:1010C00040F2000220FA01F140F20800C2F20000F2
:1010D0000068C2F200021160FFF71CFF002001B09F
:1010E000BDE8F0836068012807D159F8041C890322
:1010F0000CD4012001B0BDE8F08359F8041C02288B
:1011000002D18901F5D501E08907F2D5D9F800109F
:1011100021F003010843C9F80000FFF7D3FE06469B
:1011200041F28837D9F80000616800F00C00B0EB9C
:10113000810F91D0FFF7C6FE801BB842F2D9032081
:1011400001B0BDE8F083000040F20000C2F20000F0
:101150000068704780B5FFF7F7FF41F20401C4F261
:101160000201096843F2C842C1F30221C0F600023D
:10117000515CC84080BD000080B5FFF7E5FF41F23B
:101180000401C4F20201096843F2C842C1F3C2215A
:10119000C0F60002515CC84080BD000041F2040C62
:1011A000C4F2020CDCF8003003F00C00082841F215
:1011B0000020C0F27A0018BF7047C3F383420AA12F
:1011C0008A5CD90305D440F60010C0F23D005043BC
:1011D0007047DCF8001008A3C1F34041595C50434C
:1011E000B0FBF1F0704700BF0203040506070809D1
:1011F0000A0B0C0D0E0F1010010200002DE9F0413A
:1012000082B0002800F0C4800446007841F2000655
:10121000C007C4F2020643D0706800F00C00042836
:1012200017D0706800F00C00082802D17068C00365
:101230000FD465689DB1B5F5803F06D03068B5F52F
:10124000A02F0DD140F480203060306840F4803011
:101250000CE03068800323D5606808BB98E03068F4
:1012600020F480303060306820F480203060FFF758
:1012700029FE002D054610D03068800310D4FFF7FA
:1012800021FE401B6428F7D908E100BFFFF71AFED2
:10129000401B64284FF0030077D830688003F5D4F2
:1012A0002078800718D5706810F00C0F07D0706890
:1012B00000F00C00082826D17068C00323D43068E1
:1012C000800702D52069012862D13068616920F069
:1012D000F80040EAC1003060207800073DD5A069E1
:1012E00038B30020C4F242200121C0F88014FFF777
:1012F000E9FD0546706A80072DD4FFF7E3FD401B2A
:101300000228F7D9CAE02069002840F20000C4F2A0
:10131000422000F09A8001210160FFF7D3FD0546CD
:1013200030688007D1D4FFF7CDFD401B0228F7D9E4
:10133000B4E00020C4F242200021C0F88014FFF77E
:10134000C1FD0546706A800707D5FFF7BBFD401B4E
:101350000228F7D9A2E000F0BBFE207840071BD49A
:10136000E5698DB1706800F00C0008284CD1012DA2
:101370000ED07068216A00F480328A4208D1616A16
:1013800000F47010884203D1002002B0BDE8F08163
:10139000012002B0BDE8F081F069C0000BD4F06913
:1013A0004FF0010840F08050F061F06900F080508B
:1013B0000190019801E04FF0000847F20007C4F2E5
:1013C00000073868C00510D4386840F48070386071
:1013D000FFF778FD054600BF3868C00505D4FFF764
:1013E00071FD401B6428F7D958E0E568002D3DD019
:1013F000012D05D0306A052D39D140F0040030624E
:10140000306A40F0010038E00027C4F24227002093
:101410003866FFF757FD022D05460BD13068800175
:1014200054D5FFF74FFD401B02284FF00300F5D9BC
:10143000ABE700BF30688001A6D5FFF743FD401B36
:1014400002284FF00300F5D99FE700210160FFF764
:1014500039FD0546306880077FF53EAFFFF732FD66
:10146000401B02284FF00300F4D98EE7306A20F0C9
:1014700001003062306A20F004003062FFF722FD84
:10148000002D054641F2883714D000BF306A80072E
:1014900013D4FFF717FD401BB842F7D9032002B061
:1014A000BDE8F081FFF70EFD401BB8424FF003008E
:1014B0003FF66BAF306A8007F4D4B8F1000F3FF409
:1014C0004FAFF06920F08050F06149E7206AB0F535
:1014D000803F05D17168A26821F400311143716029
:1014E0007168626A21F4741110430843706001202E
:1014F0003866FFF7E7FC0446306880013FF544AFEB
:10150000FFF7E0FC001B02284FF00300F4D93CE792
:1015100080B500F0F5FD80BD704700007047000009
:1015200010B590F83C20012A4FF0020231D001237F
:1015300080F83C3080F83D200268D2F804E0D2F810
:1015400008C00C682EF07003234340F2FF74C4F20D
:101550000004A242536005DCB2F1804F0ED040F28D
:10156000004307E042F60043C4F201039A4205D06B
:1015700040F60003C4F200039A4204D149682CF0FB
:101580008003194391600121002280F83D1080F80A
:101590003C20104610BD0000002804BF0120704709
:1015A00010B5044690F83D0028B9002084F83C00AE
:1015B000204600F01FF8022084F83D002068211D1D
:1015C00000F0F2FD012084F8460084F83E0084F823
:1015D0003F0084F8400084F8410084F8420084F819
:1015E000430084F8440084F8450084F83D0000205E
:1015F00010BD000080B582B0006842F60041C4F220
:101600000101884201D002B080BD41F21800C4F24D
:1016100002000168002241F40061016000680021BD
:1016200000F40060019001981920FFF7C1FC192017
:10163000FFF7BAFC02B080BD90F83D1001291CBF35
:1016400001207047022180F83D10006840F2FF72CF
:10165000C168C4F20002904241F00101C16005DCA2
:10166000B0F1804F0ED040F2004107E042F6004159
:10167000C4F20101884205D040F60001C4F2000125
:10168000884206D1816801F00701062904BF0020C5
:101690007047016841F001010160002070470000BF
:1016A00010B5044690F83C0001284FF0020008BF36
:1016B00010BD012284F83C2084F83D0020684FF6DC
:1016C000777382689A4382600A684F2A0FDC1F2A68
:1016D00022DD202A23D0302A21D0402A4DD14B6848
:1016E000CA68194600F0BAFD206840213BE06F2A25
:1016F00017DDB2F5005F20D0B2F5805F2AD0702AE6
:101700003BD1D1E9012CCB68614600F093FD206804
:10171000816841F077011AE00AB1102A2DD11146F3
:1017200021E0502A18D0602A27D14B68CA68194690
:1017300000F0A6FD2068602115E0D1E9012CCB68FE
:10174000614600F077FD2068816841F48041816046
:1017500000200BE0002009E04B68CA68194600F041
:101760007DFD2068502100F071FD0020012184F8EA
:101770003D10002184F83C1010BD0120F6E7000068
:101780007047000010B5044600680169890744BF2E
:10179000C1685FEA817138D420680169490744BF94
:1017A000C1685FEA41713CD420680169090744BF00
:1017B000C1685FEA017141D420680169C90644BF6C
:1017C000C1685FEAC16145D420680169C9071CBFCF
:1017D000C1685FEAC1714AD120680169090644BF46
:1017E000C1685FEA016149D420680169490644BFC4
:1017F000C1685FEA416148D420680169890644BF35
:10180000C1685FEA816147D410BD6FF002010161D8
:10181000012121778069800745D02046FFF7B0FF7E
:1018200047E06FF00401016102212177806910F423
:10183000407F41D02046FFF7A3FF43E06FF008014F
:10184000016104212177C06980073ED02046FFF75F
:1018500097FF40E06FF01001016108212177C06916
:1018600010F4407F3AD02046FFF78AFF3CE06FF04B
:1018700001010161204600F03FF8ADE76FF0800103
:1018800001612046FFF748FEAEE76FF040010161BD
:10189000204600F0BFF8AFE76FF02001016120465D
:1018A000FFF73CFE10BD204600F022F8204600F075
:1018B00021F8002020776FE7204600F019F8204635
:1018C00000F018F8002020776EE7204600F010F8AE
:1018D000204600F00FF8002020776DE7204600F04A
:1018E00007F8204600F006F8002020776CE700009B
:1018F00070470000704700002DE9F04FDBB0006832
:1019000042F60041C4F20101884202D05BB0BDE85A
:10191000F08F40F29125C2F20005287898B140F28C
:101920009114C2F200042046FEF7FBFC82B240F2A2
:101930004810C2F20000214600F002FB002028708F
:101940005BB0BDE8F08F40F27001C2F2000191E897
:10195000310001F0D5FCCDE91910204601F0D0FC92
:10196000CDE91710284601F0CBFCCDE9151040F267
:101970008801C2F2000191E8110801F0C1FCCDE933
:101980001301204601F0BCFC12905846894601F034
:10199000B7FC0D4640F27C01C2F20001834691E89B
:1019A000C10001F0ADFC044630468A4601F0A8FCB7
:1019B00006463846884601F0A3FCCDE9100112988E
:1019C00008A981E8010A1A98CDE90B54CDE90DA6C2
:1019D0000090199843F2D042019018981BAC0290E5
:1019E0001798149B03901698C0F60002049015985F
:1019F0004FF4807105901398CDF83C8006902046F6
:101A00000793FEF7EDFB204600F03EFF5BB0BDE81C
:101A1000F08F000070470000704700007047000022
:101A200070B582B0036804461868D9685D6900F033
:101A30002F02202A01F0200205D122B1204600F019
:101A40006DFC02B070BD5FEA007C08D005F0010EAD
:101A500011F4907F8EF001054FD1002D4DD0226BF7
:101A60000840C1063FD5012A3DD1002001901868E9
:101A700001905868019001985869400600F19C80D7
:101A8000A08DE18DE28D002A1CBF401A5FEA004163
:101A900002D102B070BD00BF216851E8031F226867
:101AA00021F4907142E80313002BF5D1216851E82D
:101AB000051F226821F0010142E80513002BF5D132
:101AC000202184F842100021216300BF216851E8E1
:101AD000031F226821F0100142E80313002BF5D107
:101AE00002216163AEE0010600F1B2804006D0D56C
:101AF000204600F007FC02B070BDC30718BF11F408
:101B0000807303D0636C43F00103636400F0040648
:101B1000012383EA96062E4303D1666C46F0020643
:101B2000666400F0020683EA56032B4303D1636C1C
:101B300043F00403636452EA0E0218BF0122BCF1B1
:101B4000000F04D51AB1626C42F008026264626C44
:101B5000002A9ED00840800602D5204600F0DEFB19
:101B600020684069616C00F0400001F008014018F5
:101B700078D0204600F09EFB2068406940066CD576
:101B8000206850E8050F216820F0400041E8050278
:101B9000002AF5D1E06B00285FD042F2A521C0F603
:101BA00000014163FFF728F800283FF472AFE06BB3
:101BB000416B884702B070BDE06B016849688AB22A
:101BC000002A3FF466AFA38D9A42BFF462AFE1856D
:101BD0008069202831D000BF206850E8030F2168B9
:101BE00020F4807041E80302002AF5D1206850E813
:101BF000050F216820F0010041E80502002AF5D117
:101C0000206850E8050F216820F0400041E80502F7
:101C1000002AF5D1202084F842000020206300BF74
:101C2000206850E8030F216820F0100041E803020B
:101C3000002AF5D1E06BFEF7BFFF02206063A08DA4
:101C4000E18D401A81B22046FFF7E6FE02B070BD7A
:101C5000204600F029FC02B070BD2046FFF7DEFEF2
:101C600002B070BD2046FFF7D9FE0020606402B0CC
:101C700070BD0000002804BF0120704710B5044665
:101C800090F8410028B9002084F84000204600F078
:101C900021F8242084F841002068C16821F4005113
:101CA000C160204600F09EFB2068016921F490414C
:101CB0000161416921F02A014161C16841F400518B
:101CC000C16000202021606484F8411084F8421033
:101CD000606310BD70B586B000260596CDE9036639
:101CE000006844F20041C4F20001884202963AD0F2
:101CF00043F60001C4F2010188426AD141F21800A2
:101D0000C4F20200016840F6000441F48041016021
:101D10000168C4F2010401F4804101910199016854
:101D200002AD41F0040101600068294600F00400A2
:101D3000019001984FF4007002900220039003205C
:101D400005902046FEF7B0FF4FF48060029000201F
:101D5000CDE9030020462946FEF7A6FF25200221F3
:101D60000022252430E041F21800C4F2020041684C
:101D700040F6000441F4003141604168C4F20104BE
:101D800001F4003101910199016802AD41F00401B3
:101D900001600068294600F00400019001980420C9
:101DA000029002200390032005902046FEF77CFF5E
:101DB0000820CDE90206204629460496FEF774FF66
:101DC0002620012100222624FFF7F2F82046FFF703
:101DD000EBF806B070BD000010B590F84230202B33
:101DE0001CBF022010BD00294FF0010418BF002ABB
:101DF00001D1204610BD0024046300F03BFB2046C7
:101E000010BD000010B540F20011C2F2000188427E
:101E100014D040F24811C2F20001884218BF10BD30
:101E200040F2B500C2F200000078522808BF00F06E
:101E3000FBFC40F24810C2F2000022E040F2901495
:101E4000C2F2000440F2B5012078C2F20001097824
:101E500008B9552911D1421CD3B2227040F2940224
:101E6000C2F20002212B115407D140F29400C2F2B9
:101E7000000000F0CDFB0020207040F20010C2F204
:101E8000000040F2B501C2F200010122FFF7A4FFF9
:101E900010BD00002DE9F041044690F841002028D3
:101EA0001CBF0220BDE8F0810E4600294FF0010062
:101EB00044D01746002A08BFBDE8F0814FF0000863
:101EC00021201D46C4F8448084F84100FEF7FAFF43
:101ED000A784E784A1680746B1F5805F0DD120692A
:101EE000002814BF3046B046064606E016F8010B3F
:101EF00021684860E08C0138E084E08C80B12046A5
:101F000080213A462B4600F0F9FA80B9002EEDD137
:101F100038F8020B21686FF35F2048600026E9E77C
:101F2000204640213A462B4600F0E8FA10B1032043
:101F3000BDE8F081202084F841000020BDE8F08158
:101F4000034690F8410020281CBF0220704700295A
:101F50004FF0010018BF002A00D17047196200201D
:101F600021219A84DA84586483F841101968CA6878
:101F700042F08002CA60704770470000FEE7000030
:101F800082B041F21800C4F20200016841F0200161
:101F90000160016801F0200101910199016841F09F
:101FA00004010160006800F004000090009802B095
:101FB0007047000080B586B040F2B80042F600429B
:101FC0000021C2F20000C4F2010241F6FF0342F216
:101FD0000F7CCDE90411CDE90211CDE90011C0E972
:101FE0000023C0E9021CC0E904118161FFF7D4FAA3
:101FF000C0B94FF48050029040F2B800C2F2000025
:1020000002A9FFF74DFB68B90020CDE9000040F2BE
:10201000B800C2F200006946FFF782FA002804BF48
:1020200006B080BDFEF7C2FD80B540F2001043F659
:102030000001C2F20000C4F2010100234FF00C0CB9
:102040004FF4E13280E80E00C0E90333C0E905C374
:10205000C361FFF70FFE002808BF80BDFEF7A6FD95
:1020600080B540F2481044F20041C2F20000C4F2D0
:10207000000100234FF00C0C4FF4E13280E80E0019
:10208000C0E90333C0E905C3C361FFF7F3FD0028CE
:1020900008BF80BDFEF78AFDFEE70000FEE70000F6
:1020A00000F0070080F00703042B28BF04234FF043
:1020B000FF3C03380CFA03F338BF002099438140FA
:1020C0000CFA00F022EA0000084370477047000055
:1020D00081B040F20000C2F20000006844F6D35123
:1020E000C1F26201A0FB0101480A009000BF009804
:1020F000411E00280091F9D101B0704770470000DF
:10210000B0B501380024B4EB106F1CBF0120B0BD86
:102110004EF21005CEF2000568604FF0FF300F213F
:1021200000F054FA0720AC6028602046B0BD0000E3
:1021300080B5FEF7CDFE80BD70B590B006AC2046F0
:102140002821FEF70DF901200A9010200025022613
:102150000B904FF460100696CDE90D650F90204668
:102160000595CDE90355CDE90155FFF747F878B955
:102170000F20CDE901064FF480600395CDE90405F9
:1021800001A80221FEF728FF002804BF10B070BD8F
:10219000FEF70CFD7047000080B540F2B800C2F2B7
:1021A0000000FFF7EFFA80BD10B540F2FF7E036834
:1021B000C4F2000E42F6004C7045C4F2010C05DC7E
:1021C000B0F1804F0AD040F2004203E0604505D0F4
:1021D00040F60002C4F20002904203D14A6823F0A4
:1021E00070031343704505DCB0F1804F0AD040F214
:1021F000004203E0604505D040F60002C4F2000250
:10220000904203D1CA6823F44073134323F0800241
:102210004B69D1F800E08C681A4360450260C462E3
:10222000C0F828E002D10969CCF8301001214161E1
:1022300010BD0000D0F808C011432CF47F4C41EAD7
:10224000032141EA0C01816070470000826822F09E
:102250007002114341F0070181607047D0F820C03F
:10226000036A23F001030362836923F0F00343EA66
:1022700002122CF00A0319438261016270470000C8
:10228000D0F820C0036A23F010030362836923F4AB
:10229000704343EA02322CF0A00343EA0111826149
:1022A0000162704780B5406A0021C185C184FFF793
:1022B000B5FB80BD016851E8031F026821F49071ED
:1022C00042E80313002BF5D1016851E8051F0268AD
:1022D00021F0010142E80513002BF5D1016B012922
:1022E0000AD100BF016851E8031F026821F0100104
:1022F00042E80313002BF5D1202180F84210002181
:102300000163704780B50168CA6822F04002CA6064
:10231000202180F84110FFF72FFE80BD80B582B0EC
:1023200090F8421022291ED18268B2F5805F02D156
:10233000016900294AD0816AB2F5805F07D00AB9E5
:10234000026922B10268526802F07F0201E002686D
:1023500052680A700121826A11448162C18D01397B
:102360000A04C18501D002B080BD0168CA6822F0AC
:102370002002CA60CA6822F48072CA604A6922F0E8
:1023800001024A61202180F8421000214163026B62
:10239000012A23D1016300BF016851E8031F0268CD
:1023A00021F0100142E80313002BF5D101680A68FF
:1023B000D20606D5002201920A680192496801916D
:1023C0000199818DFFF728FB02B080BD0168826A08
:1023D00049686FF35F2111800221BCE7FFF712FD0E
:1023E00002B080BD10B504460068D4E902C223697A
:1023F000016921F4405111430161616943EA0C0212
:102400001143C26841F20C639A431143C1604169B0
:10241000A26921F44071114343F60002C4F20102A3
:102420009042416102D0FEF795FE01E0FEF7A4FE66
:102430006268192148439100B0FBF1F048F21F5146
:10244000C5F2EB11A0FB01235A096FF0630302FBF5
:102450000300322303EB0010A0FB0101F02303EA89
:102460005113206803EB0212C1F343111144816040
:1024700010BD0000816200218285C2854164222155
:1024800080F84210016921B10168CA6842F4807283
:10249000CA600168486940F001004861C86840F0BE
:1024A00020020020CA60704790F84110212923D1F2
:1024B0008168B1F5805F01D1016931B1016A0268BB
:1024C0004B1C03620978516007E0016A036831F828
:1024D000022B6FF35F225A600162C18C01390A043A
:1024E000C18418BF70470068C16821F08001C160D5
:1024F000C16841F04001C160704700002DE9F04122
:102500000446006800680840884202D10020BDE807
:10251000F0811D460E4690465F1C04E0206800686E
:102520003040B042F2D0002FF8D02DB1FEF7CAFCF7
:10253000A0EB0800A842F1D9206850E8030F2168F9
:1025400020F4D07041E80302002AF5D1206850E859
:10255000050F216820F0010041E80502002AF5D1AD
:10256000202084F8410084F84200002084F84000D4
:102570000320BDE8F081000080B540F20010C2F2F7
:102580000000FFF74DFA80BD80B540F24810C2F25E
:102590000000FFF745FA80BDFEE70000002848BFB5
:1025A000704700F01F01012202FA01F14EF2001201
:1025B0004009CEF2000242F8201070474EF60C504F
:1025C000CEF200000068C0F3022070474EF61453AC
:1025D00000F00F02CEF2000309011A4400F160433B
:1025E000B0F1FF3FC8BF03F56442117070470000AF
:1025F0004EF60C51CEF200010A684FF6FF031A4066
:1026000060F30A2242F0806040F0FD70086070477D
:102610002DE9F04381B004464078512852D1B4F9F5
:102620000200B4F9045000F097FE00F069FE0022A9
:102630004FF07C5300F066FD40F20008C4F2300811
:102640000022434600F05EFD49F69A1949F69917B3
:10265000C9F69919C4F223074A463B4600F052FDD9
:1026600000F01EFD40F27006C2F2000630602846FF
:1026700000F072FE00F044FE00224FF07C5300F0A8
:1026800041FD0022434600F03DFD4A463B4600F036
:1026900039FD00F005FD7060B4F9060000F05CFE45
:1026A00000F02EFE00224FF07C5300F02BFD0022A4
:1026B000434600F027FD4A463B4600F023FD00F06C
:1026C000EFFCB060207B52283FD1B4F90D00B4F983
:1026D0000F70B4F9118000F03FFE00F011FE0022EF
:1026E0004FF07C5300F00EFD44F20006C4F29F064A
:1026F0000022334600F006FD00F0D2FC40F28805CF
:10270000C2F200052860384600F026FE00F0F8FD11
:1027100000224FF07C5300F0F5FC0022334600F01D
:10272000F1FC00F0BDFC6860404600F015FE00F0D2
:10273000E7FD00224FF07C5300F0E4FC002233461A
:1027400000F0E0FC00F0ACFCA860E07D53283FD135
:10275000B4F91800B4F91A60B4F91C4000F0FCFD9B
:1027600000F0CEFD00224FF07C5300F0CBFC48F28D
:102770000005C4F2660500222B4600F0C3FC00F001
:102780008FFC40F27C07C2F200073860304600F050
:10279000E3FD00F0B5FD00224FF07C5300F0B2FCE9
:1027A00000222B4600F0AEFC00F07AFC7860204658
:1027B00000F0D2FD00F0A4FD00224FF07C5300F0A9
:1027C000A1FC00222B4600F09DFC00F069FCB860E3
:1027D00001B0BDE8F0830000FEF788FBFFF7ACFC1A
:1027E000FFF7CEFBFFF720FCFFF73AFCFFF7E2FB19
:1027F00040F2B800C2F20000FEF71EFF40F2B5043E
:1028000040F24810C2F20004C2F200002146012248
:10281000FFF7E2FA40F20010C2F200002146012266
:10282000FFF7DAFAFEE7000010B586B0B5208DF8A4
:1028300014004AF6FF20C8F66900049000204AF60A
:10284000FF2140F200148DF80C00C0F201418DF818
:1028500004004AF6FF20C2F200040291009004A98D
:10286000204605226423FFF715FB02A92046052216
:102870006423FFF70FFB6946204605226423FFF718
:1028800009FB06B010BD000080B5014640F2911072
:10289000C2F20000FF22FDF78AFD002180F8FF1040
:1028A00040F29120C2F200000121017080BD5FEA78
:1028B000400C08BF91F0000F4FEA8C234FEAC12271
:1028C00043EA51514FEA1C5018BF00F5F0404FEA5F
:1028D000300018BF41F000415FEA6C5C00F02980D5
:1028E000BCF1FF3F08BF40F080407047130C06BFAB
:1028F00012044FF0100C4FF0000C130E04BF120224
:102900000CF1080C130F04BF12010CF1040C930F0F
:1029100004BF92000CF1020CD30F04BF52000CF163
:10292000010C11464FF00002A0F11F00A0EB0C00BB
:10293000704711F0004F08BF704731F000413FF47D
:10294000D5AF0B0C06BF09044FF0100C4FF0000C74
:102950000B0E04BF09020CF1080C0B0F04BF090198
:102960000CF1040C8B0F04BF89000CF1020CCB0F8F
:1029700004BF49000CF1010CCCF1200322FA03F34F
:1029800041EA030102FA0CF2A0EB0C0000F1010095
:10299000704723F07F4720F07F4C80EA030000F06F
:1029A0000040ACEB070303F57C5303F1FF032DE973
:1029B000804909B44FEA144324EA03484FEA154B0F
:1029C00025EA0B4E0FF2042606EB13273E7803FB95
:1029D0000667C7F5000707FB06F64FEAD64606F17D
:1029E00002064FEA543707FB066CCCF1005C4FEA55
:1029F0001C472CEA074C0CFB06F507FB06F404EB1E
:102A000015464FEA961649085FEA320234BF0020A5
:102A10004FF000404FEAD13706FB07FC4FEA1C4C51
:102A20000CFB0BF7D21B03FB0CF761EB07010CFB54
:102A30000EF7B0EB074072EB17420CFB08F734BF00
:102A4000A2EB0742B2EB074261EB17414FEA0C449D
:102A50004FEA910706FB07FC4FEA1C4C0CFB0BF7F7
:102A6000B0EBC74072EB573203FB0CF734BFA2EB5D
:102A7000C742B2EBC74261EB57310CFB0EF7B0EB2C
:102A8000C70072EB57720CFB08F734BFA2EBC7020A
:102A9000B2EBC70261EB57714FEA816141EA9211D3
:102AA0004FEA826242EA90124FEA806004EBCC0463
:102AB000039F4FEAD13706FB07FC4FEA1C4C0CFB87
:102AC0000BF7D21B03FB0CF761EB07010CFB0EF7B6
:102AD000B0EB074072EB17420CFB08F734BFA2EBD8
:102AE0000742B2EB074261EB17414FEA8C5504EB0A
:102AF0009C244FEA910706FB07FC4FEA1C4C0CFB99
:102B00000BF7B0EBC74072EB573203FB0CF734BF47
:102B1000A2EBC742B2EBC74261EB57310CFB0EF799
:102B2000B0EBC70072EB57720CFB08F734BFA2EB97
:102B3000C702B2EBC70261EB57714FEA816141EA0C
:102B400092114FEA826242EA90124FEA806015EBDE
:102B50004C2544F100044FEAD13706FB07FC4FEA4D
:102B60001C4C0CFB0BF7D21B03FB0CF761EB0701B2
:102B70000CFB0EF7B0EB074072EB17420CFB08F7AB
:102B800034BFA2EB0742B2EB074261EB17414FEAB9
:102B9000813141EA92414FEA823242EA90424FEA61
:102BA00080304FEA0C7615EB1C1544F1000448EA1E
:102BB00003434EEA0B484FF0000EB2EB080C71EBEA
:102BC000030724BF624639464EEB0E0E4FF0000B52
:102BD0000018524149414BEB0B0BB2EB080C71EB67
:102BE00003077BF1000B24BF624639464EEB0E0E05
:102BF0004FF0000B0018524149414BEB0B0BB2EB6D
:102C0000080C71EB03077BF1000B24BF62463946C9
:102C10004EEB0E0E51EA020718BF46F0010616EB06
:102C20000E7655F1000254F1000103D5BDE889018B
:102C3000BDE80088BDE88901BDE80048B6195241E9
:102C400041EB0101A3F10103704780807F7E7D7C11
:102C50007B7A7978777676757473727171706F6E2E
:102C60006E6D6C6C6B6A6A696868676666656464D9
:102C7000636362616160605F5F5E5E5D5D5C5C5B63
:102C80005B5A5A59595858575756565555555454D2
:102C9000535352525251515050504F4F4F4E4E4D30
:102CA0004D4D4C4C4C4B4B4B4A4A4A49494948487C
:102CB00048474747474646464545454444444443BC
:102CC000434343424242424141419C46002B30D45F
:102CD00077002BD04FEA37071CB503B44FF0100034
:102CE0004FF01001BAF1000F06D0BCF1000FDCBFAD
:102CF00040F0080040F008014FF000000FBCBDE8B4
:102D000010400BF1010BBBF1010F08BF5FEA170781
:102D100022BF12F1010211F101014FF0004143F114
:102D2000000300F0004043EA00007047F9D3570861
:102D3000D0E746EA06464FEA164613F1400F1FDD7C
:102D400013F1200FDFBF16430A46002120335B42F8
:102D5000BED0C3F1200746EA06464FEA164602FAFD
:102D600007F746EA070622FA03F2C3F1200701FA41
:102D700007F742EA070221FA03F14FF00003A7E741
:102D800046EA020646EA06464FEA164646EA0106C3
:102D9000BCBF46EA0646360C4FF000034FF0000277
:102DA0004FF0000194E72DE9804C70B49A469346A9
:102DB00091E8380007C831EA400C48BF34EA430CB8
:102DC00003D5FFF7E6FDFFF780FFF0BCBDE8008C00
:102DD0002DE9804C70B49A46934691E8380007C8B4
:102DE00010F0804F08BF13F0804F03D100F005F8BA
:102DF000FFF76BFFF0BCBDE8008C20F07F4723F0AD
:102E00007F4C80EA030000F0004007EB0C03A3F5C1
:102E10007C53A3F1FE0392F0000F00F0B38095F015
:102E2000000F00F077802DE901494FEA114021EAB7
:102E300000484FEA144624EA064700FB06FC08FB5C
:102E400006F607FB08F818EB06484CEB164C00FB9F
:102E500007F718EB07484CEB17404FEA124B22EAF2
:102E60000B4E4FEA154625EA06470BFB06FC0EFB08
:102E700006F607FB0EFE1EEB064E4CEB164C0BFB4C
:102E800007F71EEB074E4CEB174B18EB0B0840F106
:102E9000000018EB0E0B58EB000840F100008F1AF1
:102EA0004FF000014FF000063CBFC943661B14BF42
:102EB000B5EB040C00213CBFC943F61B4FEA174495
:102EC00027EA04454FEA1C472CEA074C04FB07623B
:102ED00005FB07F70CFB05F616EB074642EB17421E
:102EE00004FB0CFC16EB0C4642EB1C421BEB0606EB
:102EF00058EB020241414EEA8E0E46EA9E0601D58B
:102F0000BDE80189B619524141EB0101A3F101036A
:102F1000BDE801894FEA144524EA05464FEA114706
:102F200021EA074C05FB07F406FB07F70CFB06F14B
:102F300011EB074144EB174405FB0CFC11EB0C4172
:102F400044EB1C444FEA124722EA074C05FB07F208
:102F500006FB07F70CFB06F616EB074642EB17429B
:102F600005FB0CFC16EB0C4642EB1C456A1854F1B1
:102F7000000148BF7047B619524141EB0101A3F16E
:102F80000103704795F0000F37D04FEA114221EA54
:102F900002464FEA144724EA074C02FB07F106FBFE
:102FA00007F70CFB06F414EB074441EB174102FB57
:102FB0000CFC14EB0C4441EB1C414FEA154725EA8D
:102FC000074C02FB07F506FB07F70CFB06F616EBB2
:102FD000074645EB174502FB0CFC16EB0C4645EB90
:102FE0001C42121951F1000148BF7047B6195241F5
:102FF00041EB0101A3F1010370474FEA144524EAB4
:1030000005464FEA114721EA074C05FB07F106FB8D
:1030100007F70CFB06F212EB074241EB174105FBE9
:103020000CFC12EB0C4251EB1C414FF0000648BF68
:103030007047921841EB0101A3F101037047490069
:1030400050EAC12018BF04204A0D18BF40F001000B
:1030500040F2FF72B2EB515F08BF40F0020001285E
:1030600008BF0520704730380A2801D20120704778
:103070000020704710B500290AD00878002807D032
:1030800005487844FDF746FD002801D0002010BD1A
:103090000248784410BD0000260500001E0500000F
:1030A00021F0004201F00043A2F16052B2F5801F0E
:1030B00028BFD2F17F6C0BD95FEA001C43EAC20241
:1030C00042EB507018BF704728BF20F001007047D6
:1030D000B2F5801FBCBF184670474FEA410C1CF583
:1030E000001F02D2084600F095B970B500F0B4F8A0
:1030F00000000089FFF7F6BF4FF00040A0F5800008
:103100007047000070B5DFF848C11CEA111E1EBFF1
:103110001CEA13159EEA0C0F95EA0C0F00F06F8065
:1031200081EA03044EEAD47EAE4421EA4C1123EA3C
:103130004C1341F4801143F48013AEF17F7EA1FB68
:10314000024CA0FB0365361955EB0C05A1FB034CA3
:103150004CF10003A0FB021C16EB0C06654153F179
:103160000003094218BF46F0010613F4007F0BD19B
:103170004FEA03314FEA053041EA155140EA165053
:1031800034036FF003020AE04FEAC3214FEAC5207F
:1031900041EA555140EA5650F4026FF0020202EB48
:1031A0002E4201EB025585EACE710AD05FEA440C4B
:1031B00018BF24F0004450F1000041F1000120EA62
:1031C000D47040F2FE7C624500D270BDA84214BFAC
:1031D0004FF080444FF04044002E08BF0024BEF161
:1031E000806FA8BFA1F1C041BDE8704080F282802D
:1031F00001F1C04101F000414FF0000070470CEABE
:1032000013159EEA0C0F18BF95EA0C0F06D081EA41
:10321000030E4FF000000EF0004170BD00F01CF8EE
:103220008900013E00F007B800F009B84FEA430CEE
:103230005FEA5C5C08D081EA030100F05BB84FEA0A
:10324000410C5FEA5C5CF6D102494FF00000704728
:103250000000FF070000F87F0EF1020E2EF0030EB3
:103260005EF8046B364205D4012A43EB030515F5DD
:10327000001F12D8012841EB010C1CF5001F0CD8CF
:103280000ED14FEAD17C0CEB4C0C0CF1020C15F575
:10329000001F08BF4CEBD37C04E04FF0080C01E0AA
:1032A0004FEAD37C0CEB4C0526FA05F606F0070630
:1032B000B6F1040C06D20EEB860CBDE870404CF063
:1032C000010C6047DFE80CF0090B02024FF00041EF
:1032D000A1F500214FF0000070BD194610460128ED
:1032E00051EB010418BFD4F5001484BF002001F095
:1032F000004170BD0808A0F500114FEA3101704788
:1033000043004FEAD30C4FEA3C0C43401FBF400739
:103310000CF1605113F0FE4F70471CF0006F03D1A9
:103320000CF00041002070470CF0004343EA50705D
:1033300040EACC0010B500F027F800BF0000009272
:103340004FEA0001FFF7D6BF4FF00041A1F5002181
:103350004FF000007047000010F0004148BF4042AD
:10336000B0FA80F310FA03F2C3F19D030BD051EAD7
:10337000C35101EB1220530638BF704700F1010022
:1033800008BF20F0010070470EF1020E2EF0030E70
:103390005EF8044B244204D44FEA4102B2F17F4F5D
:1033A00011D84FEA4003B3F17F4F0CD80ED14FEA4A
:1033B000D07C0CEB4C0C0CF1020CB2F17F4F08BF2F
:1033C0004CEBD17C04E04FF0080C01E04FEAD17CDB
:1033D0000CEB4C0324FA03F404F00704B4F1040CDE
:1033E00006D20EEB840CBDE810404CF0010C604797
:1033F000DFE80CF0070802024FF00040A0F5800063
:1034000010BD0846420018BFD2F1807288BF00F09C
:10341000004010BDFF2141EAD050C0057047FDF7C4
:10342000CCB8000002400000000000A00000000036
:1034300005400000000000C8000000000C40000033
:103440000000409C00000000194000000020BCBEAD
:103450000000000034400000BFC91B8E00000004C3
:10346000B5400000504BCFD06607E2CF010000000E
:103470006C4100003E8251AADFEEA734010000003B
:10348000D9420000DCB5A0E23A301F97FFFFFFFFF2
:10349000B4450000FD25A0C8E9A3C14FFFFFFFFF11
:1034A000FF3F00000000008000000000FF3F000020
:1034B000000000800000000000000000000000008C
:1034C00001020304060708090000000001020304CA
:1034D000416363656C65726174696F6E20583A2050
:1034E000252E34660A416363656C65726174696F89
:1034F0006E20593A20252E34660A416363656C6557
:10350000726174696F6E205A3A20252E34660A4122
:103510006E67756C61722076656C6F636974792073
:10352000583A20252E34660A416E67756C61722008
:1035300076656C6F6369747920593A20252E34665C
:103540000A416E67756C61722076656C6F63697491
:1035500079205A3A20252E34660A416E676C652020
:10356000583A20252E34660A416E676C6520593A18
:1035700020252E34660A416E676C65205A3A202554
:103580002E34660A00000000C83500080000002044
:103590001000000028010008D835000810000020A5
:1035A00088080000440100081C00000043000000DF
:1035B000F8FFFFFF0C0000000E0000000F000000ED
:1035C0002E000000000000000024F40001000000B4
:0835D0001000000000000000E3
:04000005080000ED02
:00000001FF
